:020000040000FA
:10000000A00400206D0200008102000083020000B5
:100010008502000087020000890200000000000045
:100020000000000000000000000000008B02000043
:100030008D020000000000008F020000910200000D
:10004000930200009302000093020000930200005C
:1000500093020000190600009302000093020000C2
:10006000930200009302000093020000930200003C
:10007000930200009302000093020000930200002C
:10008000930200009302000093020000B9040000F4
:1000900093020000D504000093020000F104000068
:1000A00093020000930200009302000093020000FC
:1000B00093020000930200009302000093020000EC
:1000C00093020000930200009302000093020000DC
:1000D00093020000930200009302000093020000CC
:1000E00093020000000000000000000093020000E6
:1000F00093020000930200009302000093020000AC
:10010000930200009302000093020000930200009B
:1001100000000000000000009302000093020000B5
:10012000930200009302000093020000930200007B
:10013000930200009302000093020000930200006B
:1001400000000000000000000000000000000000AF
:10015000930200009302000093020000930200004B
:10016000000000000000000000000000000000008F
:10017000000000000000000000000000000000007F
:10018000000000000000000000000000000000006F
:10019000000000000000000000000000000000005F
:1001A000000000000000000000000000000000004F
:1001B0000D0500009302000093020000930200006E
:1001C00093020000930200009302000093020000DB
:1001D00093020000930200009302000093020000CB
:1001E0009302000093020000930200000000000050
:1001F0000000000093020000930200009302000040
:1002000093020000930200000000000000000000C4
:10021000930200009302000093020000930200008A
:10022000930200009302000093020000930200007A
:10023000930200009302000093020000930200006A
:10024000930200009302000093020000930200005A
:10025000930200009302000093020000930200004A
:100260009302000093020000930200004EF68850B3
:10027000CEF20000016841F47001016000F00AB89C
:10028000FEE7FEE7FEE7FEE7FEE7FEE7FEE7FEE746
:10029000FEE7FEE7DFF80CD000F014F80048004756
:1002A000FD090000A004002072B6704762B67047D6
:1002B000EFF3108072B6704780F31088704730BF3C
:1002C00070470000064C074D06E0E06840F001036F
:1002D00094E8070098471034AC42F6D3FFF7DEFFEE
:1002E000D80A0000E80A000082B001200190FFE770
:1002F000019878B1FFE741F609200090FFE70098E8
:1003000020B1FFE7009801380090F8E70198013824
:100310000190EDE702B0704782B001904EF270019B
:10032000C4F20F010091086840F0004008600868BE
:1003300040F4006008604EF26002C4F20F021068E0
:1003400020F4F8601060106800F5A860106008687C
:1003500020F07000086008680860086820F4005009
:100360000860086840F080400860086820F0FE508F
:10037000019A00EB82500860FFE74EF25000C4F291
:100380000F0000684006002801D4FFE7F5E74EF2B1
:100390007001C4F20F01086820F40060086002B028
:1003A0007047000080B582B0FFF782FF019040F2F5
:1003B0005001C2F200010020086040F25401C2F274
:1003C000000108600198FFF777FF02B080BD0000D0
:1003D00082B08DF8030040F25400C2F200000068C1
:1003E00040F25001C2F200010968401A800918B1B8
:1003F000FFE70020019013E09DF8030040F2540154
:10040000C2F200010A6802F03F0340F21002C2F299
:100410000002D05408680130086001200190FFE715
:10042000019802B07047000040F25400C2F2000090
:10043000006840F25001C2F200010968401A70479A
:1004400082B0FFE72421C4F2030104200860FFE723
:100450001C20C4F2030000684007002801D4FFE715
:10046000F6E745F2FC30C4F20000006840060028C0
:1004700020D5FFE74820C4F2030000680190242142
:10048000C4F2030104200860FFE71C20C4F203004B
:1004900000684007002801D4FFE7F6E74820C4F2CF
:1004A00003000068009000980199401A20F07F40F6
:1004B00002B07047C6E7000080B52421C4F20301F2
:1004C0000120086040F20000C2F20000006880478E
:1004D00080BD000080B541F22401C4F20301012077
:1004E000086040F20400C2F200000068804780BD4E
:1004F00080B542F22401C4F203010120086040F2F9
:100500000800C2F200000068804780BD80B545F257
:100510002401C4F203010120086040F20C00C2F281
:1005200000000068804780BD82B0009040F29C00CF
:10053000C2F20000006840F29801C2F200010968AE
:10054000884203D1FFE70020019013E040F29801B8
:10055000C2F20001086800F03F0240F25800C2F207
:100560000000805C009A107008680130086001206B
:100570000190FFE7019802B07047000080B582B09B
:10058000FFF796FE019040F29801C2F200010020B0
:10059000086040F29C01C2F2000108600198FFF778
:1005A0008BFE02B080BD000082B08DF8030040F2E7
:1005B0009C00C2F20000006840F29801C2F2000103
:1005C0000968401A800918B1FFE70020019013E084
:1005D0009DF8030040F29C01C2F200010A6802F09B
:1005E0003F0340F25802C2F20002D05408680130C2
:1005F000086001200190FFE7019802B070470000F9
:1006000040F29C00C2F20000006840F29801C2F281
:1006100000010968401A704780B54CF23C00C4F2F2
:10062000000000688006002816D5FFE74CF2440160
:10063000C4F200012020086000F01AF9FFF7E0FF83
:1006400048B9FFE74CF23801C4F20001086820F015
:1006500020000860FFE7FFE74CF23C00C4F2000016
:100660000068C006002809D5FFE74CF24401C4F237
:1006700000011020086000F0D1F8FFE74CF23C00C8
:10068000C4F2000000684006002809D5FFE74CF2DC
:100690004401C4F200014020086000F0BFF8FFE709
:1006A00080BD000080B582B001904EF21861C4F2A6
:1006B0000F01086840F0010008604EF20861C4F2C2
:1006C0000F01086840F001000860FFF76BFEFFF7BC
:1006D00055FF4CF23001C4F20001086820F001001F
:1006E00008604CF22402C4F200022B2010604CF28D
:1006F0002802C4F200021A2010604CF22C02C4F24C
:100700000002702010604CF23402C4F20002106843
:1007100020F03F001060106810604CF23802C4F204
:100720000002106840F070001060086840F201326A
:100730001043086044F22041C4F20001086840F010
:100740000300086044F21C51C4F20001086840F044
:100750000300086044F22C51C4F200010868112221
:1007600062F30700086044F22851C4F2000100203F
:1007700008604EF20441CEF200010868402262F3A4
:100780000F2008604EF20011CEF200012020086018
:10079000FFF78CFD02B080BD80B582B08DF80700F8
:1007A000FFE79DF80700FFF7FFFE08B9FFE7F8E74E
:1007B0004CF23801C4F200010091086820F02000DA
:1007C000086000F055F80099086840F020000860C3
:1007D00002B080BD80B582B0019001980A2816D37E
:1007E000FFE701984CF6CD41CCF6CC410091A0FB3F
:1007F0000110C008FFF7EEFF00990198A0FB01214E
:10080000C90801EB8101A0EB41000190FFE70198CD
:100810003030C0B2FFF7C0FF02B080BD80B582B0FB
:10082000FFE74CF21800C4F2000001680020C9067E
:100830000029009009D4FFE7FFF7F6FD01460020EC
:100840003F2938BF01200090FFE70098C00760B142
:10085000FFE74CF20000C4F2000000688DF80700CA
:100860009DF80700FFF7B4FDDBE702B080BD000094
:1008700080B582B0FFE74CF21800C4F200000168B6
:10088000002089060029009007D4FFE7FFF7B8FE93
:10089000002818BF01200090FFE70098C00760B152
:1008A000FFE70DF10700FFF73FFE9DF807004CF250
:1008B0000001C4F200010860DDE702B080BD000065
:1008C00080B54EF24061C4F20F01086840F00100AB
:1008D00008604EF20861C4F20F01086840F002009F
:1008E0000860FFE74EF60820C4F20F00006880079A
:1008F000002801D4FFE7F5E745F22C51C4F20001CE
:10090000086820F47040086045F2004CC4F2000C06
:10091000DCF8000040F00800CCF8000045F220426E
:10092000C4F20002106820F00800106045F21C5369
:10093000C4F20003186840F00800186045F2285E11
:10094000C4F2000EDEF8000020F00800CEF800002F
:1009500045F20C5EC4F2000EDEF8000040F0080024
:10096000CEF8000045F2045EC4F2000EDEF800008E
:1009700040F00800CEF8000045F2FC3EC4F2000E44
:10098000DEF8000020F00800CEF80000DCF80000DF
:1009900020F04000CCF80000186840F040001860DB
:1009A000106840F040001060086820F07060086037
:1009B000086840F0E06008604EF20461C4F20F0184
:1009C000086840F0010008600C21C4F203010868C7
:1009D00020F0010008600022C4F20302042010602D
:1009E0000422C4F2030217201060086840F00C00D3
:1009F0000860086840F00100086080BD80B584B0E0
:100A000000200390FFF750FC0420FFF785FC032033
:100A1000FFF748FEFFF754FFFFF748FCFFE700F041
:100A20002BF8FFF70DFD0290029843F699218842BA
:100A300005DBFFE70020C4F21C3001901BE00298A8
:100A400040F2494148434DF68361C4F21B3150FBEB
:100A500001F1881400EBD17000EE100AB8EEC00A64
:100A60008DED010A9DED010ABCEEC00A10EE100AE0
:100A7000FFF7B0FEFFE7D2E780B582B000208DF827
:100A8000070045F2FC31C4F200010091086840F013
:100A900008000860FFF728FC0098016821F00801B1
:100AA000016000684006002804D5FFE701208DF8AA
:100AB0000700FFE702B080BD02E008C8121F08C1AE
:100AC000002AFAD170477047002001E001C1121FCF
:100AD000002AFBD170470000E80A00000000002057
:080AE000A0040000C80A000098
:040000050000029560
:00000001FF
